:1000000045C0000060C000005EC000005CC0000091
:100010005AC0000058C0000056C0000054C0000084
:1000200052C0000050C000004EC000004CC0000094
:100030004AC0000048C0000046C0000044C00000A4
:1000400042C0000040C000003EC000003CC00000B4
:100050003AC0000038C0000036C0000034C00000C4
:1000600032C0000030C000002EC000002CC00000D4
:100070002AC0000028C0000026C0000024C00000E4
:1000800022C0000020C000001EC0000011241FBEBE
:10009000CFEFD0E1DEBFCDBF11E0A0E0B1E0E6EBF5
:1000A000FFE000E00BBF02C007900D92A830B1073F
:1000B000D9F721E0A8E0B1E001C01D92A032B2075B
:1000C000E1F702D676C79CCF6115710509F07EC0B5
:1000D0002091180120952BBB4130510549F42EE0A9
:1000E00023B919BC18BC81599E4F9BBD8ABD0AC05B
:1000F000452B41F426E023B981599E4F99BD88BD17
:100100009BBD8ABD2FEF49E688E1215040408040E9
:10011000E1F700C000008091180180958BBB109220
:10012000190110921801109217011092160180E027
:1001300090E036C0282F206427B926B1206426B964
:10014000349BFECF24B135B130931F0120931E01A3
:100150002A3C334024F120E830E0082E02C03595D7
:1001600027950A94E2F74091180150911901242B28
:10017000352B309319012093180121E030E0082E2F
:1001800002C0220F331F0A94E2F7409116015091EA
:100190001701242B352B309317012093160101965C
:1001A000883091053CF28091160190911701873EAD
:1001B000910539F0873F910521F08F3E910509F0B7
:1001C000AECF1BBC1ABC19BC18BC089561307105B8
:1001D00009F079C04130510549F42BE023B91BBC2B
:1001E0001ABC81599E4F99BD88BD0AC0452B41F468
:1001F00029E023B981599E4F9BBD8ABD99BD88BD19
:100200008FEF99E628E1815090402040E1F700C04F
:1002100000008091180180958BBB109219011092FB
:100220001801109217011092160180E090E036C07C
:10023000282F206427B926B1206426B9349BFECF2D
:1002400024B135B130931F0120931E012A3C334065
:1002500024F120E830E0082E02C0359527950A9455
:10026000E2F74091180150911901242B352B30935E
:1002700019012093180121E030E0082E02C0220F5E
:10028000331F0A94E2F74091160150911701242B75
:10029000352B309317012093160101968830910574
:1002A0003CF28091160190911701873E910539F03B
:1002B000873F910521F08F3E910509F0AACF1BBC25
:1002C0001ABC19BC18BC089510929B0088E080935A
:1002D0009A0096E090939D00109298008093990068
:1002E000089590919B0095FFFCCF80939C0008950A
:1002F000EF92FF920F931F93CF93DF937C018B01BB
:10030000C0E0D0E006C0F701EC0FFD1F8081E9DFFF
:100310002196C017D107BCF3DF91CF911F910F91A8
:10032000FF90EF9008958F929F92AF92BF92CF92DD
:10033000DF92EF92FF920F931F93CF93DF93CDB78E
:10034000DEB72E970FB6F894DEBF0FBECDBF8C017F
:100350007B01109211011092100110920F01109266
:100360000E0110920D0110920C01809118018095E0
:100370008BBB8AE083B91092190110921801109278
:10038000170110921601109215011092140110928B
:1003900013011092120110920B0110920A01109297
:1003A00009011092080180E090E036C0282F2064F7
:1003B00027B926B1206426B9349BFECF24B135B1CC
:1003C00030931F0120931E012A3C334024F120E882
:1003D00030E0082E02C0359527950A94E2F7409147
:1003E000180150911901242B352B309319012093BA
:1003F000180121E030E0082E02C0220F331F0A94BA
:10040000E2F74091160150911701242B352B3093C0
:100410001701209316010196883091053CF2409116
:10042000160150911701509313014093120110923D
:1004300015011092140112C09C0121503109822330
:100440009323909313018093120180911401909152
:10045000150101969093150180931401809112016A
:1004600090911301009741F780911401909115012B
:10047000059734F481E090E090930F0180930E0192
:100480004F3E510509F40AC1F4F44F3B510509F4FC
:100490006DC064F44F37510599F14F39510509F496
:1004A0008BC04F33510509F035C23EC04F3D510559
:1004B00009F4A8C0473E510509F416C14F3C510547
:1004C00009F028C2C5C04B3F510509F4B1C16CF415
:1004D000473F510509F4F8C1493F510509F482C16C
:1004E000433F510509F016C2C9C14D3F510509F4FA
:1004F00053C10CF42FC14E3F510509F417C10AC274
:1005000080910E0190910F01019739F481E090E004
:1005100090930D0180930C0111C281E090E09093C3
:100520000B0180930A010AC280910E0190910F0184
:10053000019739F481E090E090930D0180930C01D4
:10054000FDC1109204011092050110920601109253
:10055000070180E090E0A0E8BFE380930001909362
:100560000101A0930201B0930301E8C180910E0143
:1005700090910F01019739F481E090E090930D0183
:1005800080930C01DBC18DEC9CECACE4BEE380936A
:10059000040190930501A0930601B093070180E048
:1005A00090E0A0E8BFE38093000190930101A09345
:1005B0000201B0930301C2C180910E0190910F011D
:1005C000019739F481E090E090930D0180930C0144
:1005D000B5C18DEC9CECACECBEE380930401909330
:1005E0000501A0930601B093070180E090E0A0E828
:1005F000BFE38093000190930101A0930201B093A7
:1006000003019CC180910E0190910F01019739F473
:1006100081E090E090930D0180930C018FC183ECF9
:1006200095EFA8E2BFE38093040190930501A093A6
:100630000601B093070180E090E0A0E8BFE380935B
:10064000000190930101A0930201B093030176C1D0
:1006500080910E0190910F01019739F481E090E0B3
:1006600090930D0180930C0169C18DEC9CECACE47E
:10067000BFE38093040190930501A0930601B0931A
:10068000070180E090E0A0E8BFE380930001909331
:100690000101A0930201B093030150C180910E01AA
:1006A00090910F01019739F481E090E090930D0152
:1006B00080930C0143C183E393E3A3E7BFE38093FB
:1006C000040190930501A0930601B093070180E017
:1006D00090E0A0E8BFE38093000190930101A09314
:1006E0000201B09303012AC180910E0190910F0184
:1006F000019739F481E090E090930D0180930C0113
:100700001DC180E090E0A0E8BFE3809304019093D6
:100710000501A0930601B093070180930001909317
:100720000101A0930201B093030108C180910E0161
:1007300090910F01019739F481E090E090930D01C1
:1007400080930C01FBC081E090E0909309018093BD
:100750000801F4C080910E0190910F01019739F4C6
:1007600081E090E090930D0180930C01E7C080E060
:1007700090E0A0E8BFE38093040190930501A0936B
:100780000601B0930701109200011092010110922E
:10079000020110920301D2C080910E0190910F01CD
:1007A000019739F481E090E090930D0180930C0162
:1007B000C5C080E090E0A0E8BFE38093040190937F
:1007C0000501A0930601B09307018DEC9CECACE40D
:1007D000BEE38093000190930101A0930201B093C6
:1007E0000301ACC080910E0190910F01019739F483
:1007F00081E090E090930D0180930C019FC080E018
:1008000090E0A0E8BFE38093040190930501A093DA
:100810000601B09307018DEC9CECACECBEE3809339
:10082000000190930101A0930201B093030186C0DF
:1008300080910E0190910F01019739F481E090E0D1
:1008400090930D0180930C0179C080E090E0A0E8C6
:10085000BFE38093040190930501A0930601B09338
:10086000070183EC95EFA8E2BFE38093000190932A
:100870000101A0930201B093030160C080910E01B9
:1008800090910F01019739F481E090E090930D0170
:1008900080930C0153C080E090E0A0E8BFE3809318
:1008A000040190930501A0930601B09307018DEC1C
:1008B0009CECACE4BFE38093000190930101A09312
:1008C0000201B09303013AC080910E0190910F0193
:1008D000019739F481E090E090930D0180930C0131
:1008E0002DC080E090E0A0E8BFE3809304019093E6
:1008F0000501A0930601B093070183E393E3A3E707
:10090000BFE38093000190930101A0930201B09393
:10091000030114C080E090E0A0E8BFE380930401ED
:1009200090930501A0930601B09307018093000105
:1009300090930101A0930201B093030180910C01F7
:1009400090910D010197E9F401591E4F1BBD0ABD9D
:1009500019BD08BD80E090E00AC02FEF31EE44E001
:10096000215030404040E1F700C0000001968E1554
:100970009F059CF31BBC1ABC19BC18BC8FE083B943
:1009800090C18091080190910901019709F06EC012
:1009900086E083B987E392E09BBD8ABD99BD88BD9F
:1009A0008091180180958BBB10921901109218014B
:1009B000109217011092160180E090E036C0282FA7
:1009C000206427B926B1206426B9349BFECF24B118
:1009D00035B130931F0120931E012A3C334024F18E
:1009E00020E830E0082E02C0359527950A94E2F7FA
:1009F0004091180150911901242B352B3093190186
:100A00002093180121E030E0082E02C0220F331F8E
:100A10000A94E2F74091160150911701242B352BCF
:100A200030931701209316010196883091053CF20E
:100A30008091160190911701873E910569F0873FDB
:100A4000910551F08F3E910539F0873C910521F0D9
:100A5000833E910509F09CCF8AE083B9C801815992
:100A60009E4F9BBD8ABD99BD88BDB8C080910A01CB
:100A700090910B01019709F06EC089E083B987E37B
:100A800092E09BBD8ABD99BD88BD8091180180957B
:100A90008BBB10921901109218011092170110923D
:100AA000160180E090E036C0282F206427B926B1D7
:100AB000206426B9349BFECF24B135B130931F0199
:100AC00020931E012A3C334024F120E830E0082E18
:100AD00002C0359527950A94E2F74091180150918C
:100AE0001901242B352B309319012093180121E093
:100AF00030E0082E02C0220F331F0A94E2F7409123
:100B0000160150911701242B352B30931701209398
:100B100016010196883091053CF280911601909162
:100B20001701873E910569F0873F910551F08F3E8F
:100B3000910539F0873C910521F0833E910509F03C
:100B40009CCF8AE083B9C80181599E4F9BBD8ABD65
:100B500099BD88BD43C0B801012E000C880B990BCC
:100B600012D14B015C0120910401309105014091AB
:100B70000601509107016BD1D3D06B0170931D0119
:100B800060931C012091000130910101409102010C
:100B900050910301C501B4015AD1C2D070931B0119
:100BA00060931A0177231CF489E083B907C0DD2024
:100BB0001CF486E083B902C08AE083B980911A01EF
:100BC00090911B0181599E4F99BD88BD80911C0158
:100BD00090911D0181599E4F9BBD8ABD8091160148
:100BE000909117019A87898788B599B59C878B87DB
:100BF0008AB59BB59E878D87C12CD12C4AC0F60142
:100C0000EE0FFF1F81E090E08C0F9D1FE80FF91F92
:100C100020853185C90160E177E2A4D10F2EF8EE7D
:100C2000AF2EF3E0BF2EF02DB5019CD1F601EE0FF3
:100C3000FF1FEE0FFF1F81E090E08C0F9D1FE80F5C
:100C4000F91F605D6083C901B5018CD10F2EF4E6F8
:100C5000AF2EB12CF02DB50185D1605D6183C90146
:100C6000B50180D10F2EFAE0AF2EB12CF02DB501D9
:100C700079D1605D6283C901B50174D1805D8383E0
:100C800064E070E0CF0134DB80E22BDB9FEFC91A18
:100C9000D90A23E0C216D1040CF4B1CF8DE021DBD8
:100CA00064CB2E960FB6F894DEBF0FBECDBFDF919A
:100CB000CF911F910F91FF90EF90DF90CF90BF9059
:100CC000AF909F908F900895FFDA8FEF8ABB1092BC
:100CD000610097E896B928E021BB96B987BB8FE001
:100CE00082B982EA8FBD89E18EBD8AE083B98FE146
:100CF00093E097BD86BD80EA90E09BBD8ABD99BD1B
:100D000088BD67E070E088EC90E00DDB40E050E0EB
:100D100061E070E088EC90E0D7D980E090E0089541
:100D200004D06894B1118DC0089570D088F09F5799
:100D300090F0B92F9927B751A0F0D1F0660F771F27
:100D4000881F991F1AF0BA95C9F712C0B13081F007
:100D500077D0B1E0089574C0672F782F8827B85FE7
:100D600039F0B93FCCF3869577956795B395D9F768
:100D70003EF490958095709561957F4F8F4F9F4F72
:100D80000895E89409C097FB3EF49095809570957E
:100D900061957F4F8F4F9F4F9923A9F0F92F96E9C7
:100DA000BB279395F695879577956795B795F1113C
:100DB000F8CFFAF4BB0F11F460FF1BC06F5F7F4FD9
:100DC0008F4F9F4F16C0882311F096E911C07723EB
:100DD00021F09EE8872F762F05C0662371F096E8F4
:100DE000862F70E060E02AF09A95660F771F881FC3
:100DF000DAF7880F9695879597F9089557FD9058DB
:100E0000440F551F59F05F3F71F04795880F97FBCE
:100E1000991F61F09F3F79F0879508951216130688
:100E20001406551FF2CF4695F1DF08C016161706B7
:100E30001806991FF1CF86957105610508940895EC
:100E4000E894BB2766277727CB0197F908950BD045
:100E500078C069D028F06ED018F0952309F05AC0F8
:100E60005FC01124EECFCADFA0F3959FD1F3950F99
:100E700050E0551F629FF001729FBB27F00DB11D1E
:100E8000639FAA27F00DB11DAA1F649F6627B00DAE
:100E9000A11D661F829F2227B00DA11D621F739F97
:100EA000B00DA11D621F839FA00D611D221F749FA5
:100EB0003327A00D611D231F849F600D211D822FEC
:100EC000762F6A2F11249F5750408AF0E1F0882333
:100ED0004AF0EE0FFF1FBB1F661F771F881F915040
:100EE0005040A9F79E3F510570F014C0AACF5F3F54
:100EF000ECF3983EDCF3869577956795B795F79573
:100F0000E7959F5FC1F7FE2B880F911D96958795FA
:100F100097F9089597F99F6780E870E060E0089579
:100F20009FEF80EC089500240A9416161706180601
:100F30000906089500240A941216130614060506DD
:100F40000895092E0394000C11F4882352F0BB0F6E
:100F500040F4BF2B11F460FF04C06F5F7F4F8F4FD1
:100F60009F4F089597FB072E16F4009406D077FD47
:100F700008D00BD007FC05D03EF4909581959F4F8B
:100F80000895709561957F4F0895AA1BBB1B51E191
:100F900007C0AA1FBB1FA617B70710F0A61BB70BE9
:100FA000881F991F5A95A9F780959095BC01CD018E
:060FB0000895F894FFCF44
:080FB6000000803F0000803FB5
:00000001FF
